{
  "_format": "hh-sol-artifact-1",
  "contractName": "MeebitsDAO_Achievements",
  "sourceName": "contracts/AcheivementNFT.sol",
  "abi": [
    {
      "inputs": [
        {
          "internalType": "uint256",
          "name": "cap_",
          "type": "uint256"
        }
      ],
      "stateMutability": "nonpayable",
      "type": "constructor"
    },
    {
      "anonymous": false,
      "inputs": [
        {
          "indexed": true,
          "internalType": "address",
          "name": "owner",
          "type": "address"
        },
        {
          "indexed": true,
          "internalType": "address",
          "name": "approved",
          "type": "address"
        },
        {
          "indexed": true,
          "internalType": "uint256",
          "name": "tokenId",
          "type": "uint256"
        }
      ],
      "name": "Approval",
      "type": "event"
    },
    {
      "anonymous": false,
      "inputs": [
        {
          "indexed": true,
          "internalType": "address",
          "name": "owner",
          "type": "address"
        },
        {
          "indexed": true,
          "internalType": "address",
          "name": "operator",
          "type": "address"
        },
        {
          "indexed": false,
          "internalType": "bool",
          "name": "approved",
          "type": "bool"
        }
      ],
      "name": "ApprovalForAll",
      "type": "event"
    },
    {
      "anonymous": false,
      "inputs": [
        {
          "indexed": true,
          "internalType": "address",
          "name": "previousOwner",
          "type": "address"
        },
        {
          "indexed": true,
          "internalType": "address",
          "name": "newOwner",
          "type": "address"
        }
      ],
      "name": "OwnershipTransferred",
      "type": "event"
    },
    {
      "anonymous": false,
      "inputs": [
        {
          "indexed": true,
          "internalType": "address",
          "name": "from",
          "type": "address"
        },
        {
          "indexed": true,
          "internalType": "address",
          "name": "to",
          "type": "address"
        },
        {
          "indexed": true,
          "internalType": "uint256",
          "name": "tokenId",
          "type": "uint256"
        }
      ],
      "name": "Transfer",
      "type": "event"
    },
    {
      "inputs": [
        {
          "internalType": "address",
          "name": "to",
          "type": "address"
        },
        {
          "internalType": "uint256",
          "name": "tokenId",
          "type": "uint256"
        }
      ],
      "name": "approve",
      "outputs": [],
      "stateMutability": "nonpayable",
      "type": "function"
    },
    {
      "inputs": [
        {
          "internalType": "address",
          "name": "owner",
          "type": "address"
        }
      ],
      "name": "balanceOf",
      "outputs": [
        {
          "internalType": "uint256",
          "name": "",
          "type": "uint256"
        }
      ],
      "stateMutability": "view",
      "type": "function"
    },
    {
      "inputs": [],
      "name": "cap",
      "outputs": [
        {
          "internalType": "uint256",
          "name": "",
          "type": "uint256"
        }
      ],
      "stateMutability": "view",
      "type": "function"
    },
    {
      "inputs": [
        {
          "internalType": "uint256",
          "name": "tokenId",
          "type": "uint256"
        }
      ],
      "name": "getApproved",
      "outputs": [
        {
          "internalType": "address",
          "name": "",
          "type": "address"
        }
      ],
      "stateMutability": "view",
      "type": "function"
    },
    {
      "inputs": [
        {
          "internalType": "address",
          "name": "owner",
          "type": "address"
        },
        {
          "internalType": "address",
          "name": "operator",
          "type": "address"
        }
      ],
      "name": "isApprovedForAll",
      "outputs": [
        {
          "internalType": "bool",
          "name": "",
          "type": "bool"
        }
      ],
      "stateMutability": "view",
      "type": "function"
    },
    {
      "inputs": [],
      "name": "name",
      "outputs": [
        {
          "internalType": "string",
          "name": "",
          "type": "string"
        }
      ],
      "stateMutability": "view",
      "type": "function"
    },
    {
      "inputs": [],
      "name": "owner",
      "outputs": [
        {
          "internalType": "address",
          "name": "",
          "type": "address"
        }
      ],
      "stateMutability": "view",
      "type": "function"
    },
    {
      "inputs": [
        {
          "internalType": "uint256",
          "name": "tokenId",
          "type": "uint256"
        }
      ],
      "name": "ownerOf",
      "outputs": [
        {
          "internalType": "address",
          "name": "",
          "type": "address"
        }
      ],
      "stateMutability": "view",
      "type": "function"
    },
    {
      "inputs": [],
      "name": "renounceOwnership",
      "outputs": [],
      "stateMutability": "nonpayable",
      "type": "function"
    },
    {
      "inputs": [
        {
          "internalType": "address",
          "name": "to",
          "type": "address"
        },
        {
          "internalType": "string",
          "name": "uri",
          "type": "string"
        }
      ],
      "name": "safeMint",
      "outputs": [
        {
          "internalType": "uint256",
          "name": "",
          "type": "uint256"
        }
      ],
      "stateMutability": "nonpayable",
      "type": "function"
    },
    {
      "inputs": [
        {
          "internalType": "address",
          "name": "from",
          "type": "address"
        },
        {
          "internalType": "address",
          "name": "to",
          "type": "address"
        },
        {
          "internalType": "uint256",
          "name": "tokenId",
          "type": "uint256"
        }
      ],
      "name": "safeTransferFrom",
      "outputs": [],
      "stateMutability": "nonpayable",
      "type": "function"
    },
    {
      "inputs": [
        {
          "internalType": "address",
          "name": "from",
          "type": "address"
        },
        {
          "internalType": "address",
          "name": "to",
          "type": "address"
        },
        {
          "internalType": "uint256",
          "name": "tokenId",
          "type": "uint256"
        },
        {
          "internalType": "bytes",
          "name": "_data",
          "type": "bytes"
        }
      ],
      "name": "safeTransferFrom",
      "outputs": [],
      "stateMutability": "nonpayable",
      "type": "function"
    },
    {
      "inputs": [
        {
          "internalType": "address",
          "name": "operator",
          "type": "address"
        },
        {
          "internalType": "bool",
          "name": "approved",
          "type": "bool"
        }
      ],
      "name": "setApprovalForAll",
      "outputs": [],
      "stateMutability": "nonpayable",
      "type": "function"
    },
    {
      "inputs": [
        {
          "internalType": "bytes4",
          "name": "interfaceId",
          "type": "bytes4"
        }
      ],
      "name": "supportsInterface",
      "outputs": [
        {
          "internalType": "bool",
          "name": "",
          "type": "bool"
        }
      ],
      "stateMutability": "view",
      "type": "function"
    },
    {
      "inputs": [],
      "name": "symbol",
      "outputs": [
        {
          "internalType": "string",
          "name": "",
          "type": "string"
        }
      ],
      "stateMutability": "view",
      "type": "function"
    },
    {
      "inputs": [
        {
          "internalType": "uint256",
          "name": "tokenId",
          "type": "uint256"
        }
      ],
      "name": "tokenURI",
      "outputs": [
        {
          "internalType": "string",
          "name": "",
          "type": "string"
        }
      ],
      "stateMutability": "view",
      "type": "function"
    },
    {
      "inputs": [
        {
          "internalType": "address",
          "name": "from",
          "type": "address"
        },
        {
          "internalType": "address",
          "name": "to",
          "type": "address"
        },
        {
          "internalType": "uint256",
          "name": "tokenId",
          "type": "uint256"
        }
      ],
      "name": "transferFrom",
      "outputs": [],
      "stateMutability": "nonpayable",
      "type": "function"
    },
    {
      "inputs": [
        {
          "internalType": "address",
          "name": "newOwner",
          "type": "address"
        }
      ],
      "name": "transferOwnership",
      "outputs": [],
      "stateMutability": "nonpayable",
      "type": "function"
    }
  ],
  "bytecode": "0x60a06040523480156200001157600080fd5b5060405162002f1438038062002f148339818101604052810190620000379190620002e1565b6040518060400160405280601781526020017f4d65656269747344414f20416368696576656d656e74730000000000000000008152506040518060400160405280600481526020017f4d44414f000000000000000000000000000000000000000000000000000000008152508160009080519060200190620000bb9291906200021a565b508060019080519060200190620000d49291906200021a565b505050620000f7620000eb6200014c60201b60201c565b6200015460201b60201c565b600081116200013d576040517f08c379a000000000000000000000000000000000000000000000000000000000815260040162000134906200034f565b60405180910390fd5b8060808181525050506200040b565b600033905090565b6000600660009054906101000a900473ffffffffffffffffffffffffffffffffffffffff16905081600660006101000a81548173ffffffffffffffffffffffffffffffffffffffff021916908373ffffffffffffffffffffffffffffffffffffffff1602179055508173ffffffffffffffffffffffffffffffffffffffff168173ffffffffffffffffffffffffffffffffffffffff167f8be0079c531659141344cd1fd0a4f28419497f9722a3daafe3b4186f6b6457e060405160405180910390a35050565b82805462000228906200038c565b90600052602060002090601f0160209004810192826200024c576000855562000298565b82601f106200026757805160ff191683800117855562000298565b8280016001018555821562000298579182015b82811115620002975782518255916020019190600101906200027a565b5b509050620002a79190620002ab565b5090565b5b80821115620002c6576000816000905550600101620002ac565b5090565b600081519050620002db81620003f1565b92915050565b600060208284031215620002f457600080fd5b60006200030484828501620002ca565b91505092915050565b60006200031c60108362000371565b91507f4552433732313a206361702069732030000000000000000000000000000000006000830152602082019050919050565b600060208201905081810360008301526200036a816200030d565b9050919050565b600082825260208201905092915050565b6000819050919050565b60006002820490506001821680620003a557607f821691505b60208210811415620003bc57620003bb620003c2565b5b50919050565b7f4e487b7100000000000000000000000000000000000000000000000000000000600052602260045260246000fd5b620003fc8162000382565b81146200040857600080fd5b50565b608051612aed62000427600039600061070a0152612aed6000f3fe608060405234801561001057600080fd5b50600436106101165760003560e01c8063715018a6116100a2578063b88d4fde11610071578063b88d4fde146102cd578063c87b56dd146102e9578063d204c45e14610319578063e985e9c514610349578063f2fde38b1461037957610116565b8063715018a61461026b5780638da5cb5b1461027557806395d89b4114610293578063a22cb465146102b157610116565b806323b872dd116100e957806323b872dd146101b5578063355274ea146101d157806342842e0e146101ef5780636352211e1461020b57806370a082311461023b57610116565b806301ffc9a71461011b57806306fdde031461014b578063081812fc14610169578063095ea7b314610199575b600080fd5b61013560048036038101906101309190611d81565b610395565b604051610142919061250a565b60405180910390f35b610153610477565b6040516101609190612525565b60405180910390f35b610183600480360381019061017e9190611dd3565b610509565b60405161019091906124a3565b60405180910390f35b6101b360048036038101906101ae9190611d45565b61058e565b005b6101cf60048036038101906101ca9190611beb565b6106a6565b005b6101d9610706565b6040516101e69190612767565b60405180910390f35b61020960048036038101906102049190611beb565b61072e565b005b61022560048036038101906102209190611dd3565b61074e565b60405161023291906124a3565b60405180910390f35b61025560048036038101906102509190611b86565b610800565b6040516102629190612767565b60405180910390f35b6102736108b8565b005b61027d610940565b60405161028a91906124a3565b60405180910390f35b61029b61096a565b6040516102a89190612525565b60405180910390f35b6102cb60048036038101906102c69190611cb5565b6109fc565b005b6102e760048036038101906102e29190611c3a565b610b7d565b005b61030360048036038101906102fe9190611dd3565b610bdf565b6040516103109190612525565b60405180910390f35b610333600480360381019061032e9190611cf1565b610cd2565b6040516103409190612767565b60405180910390f35b610363600480360381019061035e9190611baf565b610de5565b604051610370919061250a565b60405180910390f35b610393600480360381019061038e9190611b86565b610e79565b005b60007f80ac58cd000000000000000000000000000000000000000000000000000000007bffffffffffffffffffffffffffffffffffffffffffffffffffffffff1916827bffffffffffffffffffffffffffffffffffffffffffffffffffffffff1916148061046057507f5b5e139f000000000000000000000000000000000000000000000000000000007bffffffffffffffffffffffffffffffffffffffffffffffffffffffff1916827bffffffffffffffffffffffffffffffffffffffffffffffffffffffff1916145b80610470575061046f82610f71565b5b9050919050565b6060600080546104869061298b565b80601f01602080910402602001604051908101604052809291908181526020018280546104b29061298b565b80156104ff5780601f106104d4576101008083540402835291602001916104ff565b820191906000526020600020905b8154815290600101906020018083116104e257829003601f168201915b5050505050905090565b600061051482610fdb565b610553576040517f08c379a000000000000000000000000000000000000000000000000000000000815260040161054a90612687565b60405180910390fd5b6004600083815260200190815260200160002060009054906101000a900473ffffffffffffffffffffffffffffffffffffffff169050919050565b60006105998261074e565b90508073ffffffffffffffffffffffffffffffffffffffff168373ffffffffffffffffffffffffffffffffffffffff16141561060a576040517f08c379a000000000000000000000000000000000000000000000000000000000815260040161060190612707565b60405180910390fd5b8073ffffffffffffffffffffffffffffffffffffffff16610629611047565b73ffffffffffffffffffffffffffffffffffffffff161480610658575061065781610652611047565b610de5565b5b610697576040517f08c379a000000000000000000000000000000000000000000000000000000000815260040161068e90612607565b60405180910390fd5b6106a1838361104f565b505050565b6106b76106b1611047565b82611108565b6106f6576040517f08c379a00000000000000000000000000000000000000000000000000000000081526004016106ed90612727565b60405180910390fd5b6107018383836111e6565b505050565b60007f0000000000000000000000000000000000000000000000000000000000000000905090565b61074983838360405180602001604052806000815250610b7d565b505050565b6000806002600084815260200190815260200160002060009054906101000a900473ffffffffffffffffffffffffffffffffffffffff169050600073ffffffffffffffffffffffffffffffffffffffff168173ffffffffffffffffffffffffffffffffffffffff1614156107f7576040517f08c379a00000000000000000000000000000000000000000000000000000000081526004016107ee90612647565b60405180910390fd5b80915050919050565b60008073ffffffffffffffffffffffffffffffffffffffff168273ffffffffffffffffffffffffffffffffffffffff161415610871576040517f08c379a000000000000000000000000000000000000000000000000000000000815260040161086890612627565b60405180910390fd5b600360008373ffffffffffffffffffffffffffffffffffffffff1673ffffffffffffffffffffffffffffffffffffffff168152602001908152602001600020549050919050565b6108c0611047565b73ffffffffffffffffffffffffffffffffffffffff166108de610940565b73ffffffffffffffffffffffffffffffffffffffff1614610934576040517f08c379a000000000000000000000000000000000000000000000000000000000815260040161092b906126a7565b60405180910390fd5b61093e6000611442565b565b6000600660009054906101000a900473ffffffffffffffffffffffffffffffffffffffff16905090565b6060600180546109799061298b565b80601f01602080910402602001604051908101604052809291908181526020018280546109a59061298b565b80156109f25780601f106109c7576101008083540402835291602001916109f2565b820191906000526020600020905b8154815290600101906020018083116109d557829003601f168201915b5050505050905090565b610a04611047565b73ffffffffffffffffffffffffffffffffffffffff168273ffffffffffffffffffffffffffffffffffffffff161415610a72576040517f08c379a0000000000000000000000000000000000000000000000000000000008152600401610a69906125c7565b60405180910390fd5b8060056000610a7f611047565b73ffffffffffffffffffffffffffffffffffffffff1673ffffffffffffffffffffffffffffffffffffffff16815260200190815260200160002060008473ffffffffffffffffffffffffffffffffffffffff1673ffffffffffffffffffffffffffffffffffffffff16815260200190815260200160002060006101000a81548160ff0219169083151502179055508173ffffffffffffffffffffffffffffffffffffffff16610b2c611047565b73ffffffffffffffffffffffffffffffffffffffff167f17307eab39ab6107e8899845ad3d59bd9653f200f220920489ca2b5937696c3183604051610b71919061250a565b60405180910390a35050565b610b8e610b88611047565b83611108565b610bcd576040517f08c379a0000000000000000000000000000000000000000000000000000000008152600401610bc490612727565b60405180910390fd5b610bd984848484611508565b50505050565b6060610bea82610fdb565b610c29576040517f08c379a0000000000000000000000000000000000000000000000000000000008152600401610c20906126e7565b60405180910390fd5b6000600860008481526020019081526020016000208054610c499061298b565b80601f0160208091040260200160405190810160405280929190818152602001828054610c759061298b565b8015610cc25780601f10610c9757610100808354040283529160200191610cc2565b820191906000526020600020905b815481529060010190602001808311610ca557829003601f168201915b5050505050905080915050919050565b6000610cdc611047565b73ffffffffffffffffffffffffffffffffffffffff16610cfa610940565b73ffffffffffffffffffffffffffffffffffffffff1614610d50576040517f08c379a0000000000000000000000000000000000000000000000000000000008152600401610d47906126a7565b60405180910390fd5b610d58610706565b6001610d646007611564565b610d6e919061284b565b1115610daf576040517f08c379a0000000000000000000000000000000000000000000000000000000008152600401610da690612747565b60405180910390fd5b610db96007611572565b6000610dc56007611564565b9050610dd18482611588565b610ddb81846115a6565b8091505092915050565b6000600560008473ffffffffffffffffffffffffffffffffffffffff1673ffffffffffffffffffffffffffffffffffffffff16815260200190815260200160002060008373ffffffffffffffffffffffffffffffffffffffff1673ffffffffffffffffffffffffffffffffffffffff16815260200190815260200160002060009054906101000a900460ff16905092915050565b610e81611047565b73ffffffffffffffffffffffffffffffffffffffff16610e9f610940565b73ffffffffffffffffffffffffffffffffffffffff1614610ef5576040517f08c379a0000000000000000000000000000000000000000000000000000000008152600401610eec906126a7565b60405180910390fd5b600073ffffffffffffffffffffffffffffffffffffffff168173ffffffffffffffffffffffffffffffffffffffff161415610f65576040517f08c379a0000000000000000000000000000000000000000000000000000000008152600401610f5c90612567565b60405180910390fd5b610f6e81611442565b50565b60007f01ffc9a7000000000000000000000000000000000000000000000000000000007bffffffffffffffffffffffffffffffffffffffffffffffffffffffff1916827bffffffffffffffffffffffffffffffffffffffffffffffffffffffff1916149050919050565b60008073ffffffffffffffffffffffffffffffffffffffff166002600084815260200190815260200160002060009054906101000a900473ffffffffffffffffffffffffffffffffffffffff1673ffffffffffffffffffffffffffffffffffffffff1614159050919050565b600033905090565b816004600083815260200190815260200160002060006101000a81548173ffffffffffffffffffffffffffffffffffffffff021916908373ffffffffffffffffffffffffffffffffffffffff160217905550808273ffffffffffffffffffffffffffffffffffffffff166110c28361074e565b73ffffffffffffffffffffffffffffffffffffffff167f8c5be1e5ebec7d5bd14f71427d1e84f3dd0314c0f7b2291e5b200ac8c7c3b92560405160405180910390a45050565b600061111382610fdb565b611152576040517f08c379a0000000000000000000000000000000000000000000000000000000008152600401611149906125e7565b60405180910390fd5b600061115d8361074e565b90508073ffffffffffffffffffffffffffffffffffffffff168473ffffffffffffffffffffffffffffffffffffffff1614806111cc57508373ffffffffffffffffffffffffffffffffffffffff166111b484610509565b73ffffffffffffffffffffffffffffffffffffffff16145b806111dd57506111dc8185610de5565b5b91505092915050565b8273ffffffffffffffffffffffffffffffffffffffff166112068261074e565b73ffffffffffffffffffffffffffffffffffffffff161461125c576040517f08c379a0000000000000000000000000000000000000000000000000000000008152600401611253906126c7565b60405180910390fd5b600073ffffffffffffffffffffffffffffffffffffffff168273ffffffffffffffffffffffffffffffffffffffff1614156112cc576040517f08c379a00000000000000000000000000000000000000000000000000000000081526004016112c3906125a7565b60405180910390fd5b6112d78383836115d2565b6112e260008261104f565b6001600360008573ffffffffffffffffffffffffffffffffffffffff1673ffffffffffffffffffffffffffffffffffffffff168152602001908152602001600020600082825461133291906128a1565b925050819055506001600360008473ffffffffffffffffffffffffffffffffffffffff1673ffffffffffffffffffffffffffffffffffffffff1681526020019081526020016000206000828254611389919061284b565b92505081905550816002600083815260200190815260200160002060006101000a81548173ffffffffffffffffffffffffffffffffffffffff021916908373ffffffffffffffffffffffffffffffffffffffff160217905550808273ffffffffffffffffffffffffffffffffffffffff168473ffffffffffffffffffffffffffffffffffffffff167fddf252ad1be2c89b69c2b068fc378daa952ba7f163c4a11628f55a4df523b3ef60405160405180910390a4505050565b6000600660009054906101000a900473ffffffffffffffffffffffffffffffffffffffff16905081600660006101000a81548173ffffffffffffffffffffffffffffffffffffffff021916908373ffffffffffffffffffffffffffffffffffffffff1602179055508173ffffffffffffffffffffffffffffffffffffffff168173ffffffffffffffffffffffffffffffffffffffff167f8be0079c531659141344cd1fd0a4f28419497f9722a3daafe3b4186f6b6457e060405160405180910390a35050565b6115138484846111e6565b61151f848484846115d7565b61155e576040517f08c379a000000000000000000000000000000000000000000000000000000000815260040161155590612547565b60405180910390fd5b50505050565b600081600001549050919050565b6001816000016000828254019250508190555050565b6115a282826040518060200160405280600081525061176e565b5050565b806008600084815260200190815260200160002090805190602001906115cd9291906119aa565b505050565b505050565b60006115f88473ffffffffffffffffffffffffffffffffffffffff166117c9565b15611761578373ffffffffffffffffffffffffffffffffffffffff1663150b7a02611621611047565b8786866040518563ffffffff1660e01b815260040161164394939291906124be565b602060405180830381600087803b15801561165d57600080fd5b505af192505050801561168e57506040513d601f19601f8201168201806040525081019061168b9190611daa565b60015b611711573d80600081146116be576040519150601f19603f3d011682016040523d82523d6000602084013e6116c3565b606091505b50600081511415611709576040517f08c379a000000000000000000000000000000000000000000000000000000000815260040161170090612547565b60405180910390fd5b805181602001fd5b63150b7a0260e01b7bffffffffffffffffffffffffffffffffffffffffffffffffffffffff1916817bffffffffffffffffffffffffffffffffffffffffffffffffffffffff191614915050611766565b600190505b949350505050565b61177883836117dc565b61178560008484846115d7565b6117c4576040517f08c379a00000000000000000000000000000000000000000000000000000000081526004016117bb90612547565b60405180910390fd5b505050565b600080823b905060008111915050919050565b600073ffffffffffffffffffffffffffffffffffffffff168273ffffffffffffffffffffffffffffffffffffffff16141561184c576040517f08c379a000000000000000000000000000000000000000000000000000000000815260040161184390612667565b60405180910390fd5b61185581610fdb565b15611895576040517f08c379a000000000000000000000000000000000000000000000000000000000815260040161188c90612587565b60405180910390fd5b6118a1600083836115d2565b6001600360008473ffffffffffffffffffffffffffffffffffffffff1673ffffffffffffffffffffffffffffffffffffffff16815260200190815260200160002060008282546118f1919061284b565b92505081905550816002600083815260200190815260200160002060006101000a81548173ffffffffffffffffffffffffffffffffffffffff021916908373ffffffffffffffffffffffffffffffffffffffff160217905550808273ffffffffffffffffffffffffffffffffffffffff16600073ffffffffffffffffffffffffffffffffffffffff167fddf252ad1be2c89b69c2b068fc378daa952ba7f163c4a11628f55a4df523b3ef60405160405180910390a45050565b8280546119b69061298b565b90600052602060002090601f0160209004810192826119d85760008555611a1f565b82601f106119f157805160ff1916838001178555611a1f565b82800160010185558215611a1f579182015b82811115611a1e578251825591602001919060010190611a03565b5b509050611a2c9190611a30565b5090565b5b80821115611a49576000816000905550600101611a31565b5090565b6000611a60611a5b846127b3565b612782565b905082815260208101848484011115611a7857600080fd5b611a83848285612949565b509392505050565b6000611a9e611a99846127e3565b612782565b905082815260208101848484011115611ab657600080fd5b611ac1848285612949565b509392505050565b600081359050611ad881612a5b565b92915050565b600081359050611aed81612a72565b92915050565b600081359050611b0281612a89565b92915050565b600081519050611b1781612a89565b92915050565b600082601f830112611b2e57600080fd5b8135611b3e848260208601611a4d565b91505092915050565b600082601f830112611b5857600080fd5b8135611b68848260208601611a8b565b91505092915050565b600081359050611b8081612aa0565b92915050565b600060208284031215611b9857600080fd5b6000611ba684828501611ac9565b91505092915050565b60008060408385031215611bc257600080fd5b6000611bd085828601611ac9565b9250506020611be185828601611ac9565b9150509250929050565b600080600060608486031215611c0057600080fd5b6000611c0e86828701611ac9565b9350506020611c1f86828701611ac9565b9250506040611c3086828701611b71565b9150509250925092565b60008060008060808587031215611c5057600080fd5b6000611c5e87828801611ac9565b9450506020611c6f87828801611ac9565b9350506040611c8087828801611b71565b925050606085013567ffffffffffffffff811115611c9d57600080fd5b611ca987828801611b1d565b91505092959194509250565b60008060408385031215611cc857600080fd5b6000611cd685828601611ac9565b9250506020611ce785828601611ade565b9150509250929050565b60008060408385031215611d0457600080fd5b6000611d1285828601611ac9565b925050602083013567ffffffffffffffff811115611d2f57600080fd5b611d3b85828601611b47565b9150509250929050565b60008060408385031215611d5857600080fd5b6000611d6685828601611ac9565b9250506020611d7785828601611b71565b9150509250929050565b600060208284031215611d9357600080fd5b6000611da184828501611af3565b91505092915050565b600060208284031215611dbc57600080fd5b6000611dca84828501611b08565b91505092915050565b600060208284031215611de557600080fd5b6000611df384828501611b71565b91505092915050565b611e05816128d5565b82525050565b611e14816128e7565b82525050565b6000611e2582612813565b611e2f8185612829565b9350611e3f818560208601612958565b611e4881612a4a565b840191505092915050565b6000611e5e8261281e565b611e68818561283a565b9350611e78818560208601612958565b611e8181612a4a565b840191505092915050565b6000611e9960328361283a565b91507f4552433732313a207472616e7366657220746f206e6f6e20455243373231526560008301527f63656976657220696d706c656d656e74657200000000000000000000000000006020830152604082019050919050565b6000611eff60268361283a565b91507f4f776e61626c653a206e6577206f776e657220697320746865207a65726f206160008301527f64647265737300000000000000000000000000000000000000000000000000006020830152604082019050919050565b6000611f65601c8361283a565b91507f4552433732313a20746f6b656e20616c7265616479206d696e746564000000006000830152602082019050919050565b6000611fa560248361283a565b91507f4552433732313a207472616e7366657220746f20746865207a65726f2061646460008301527f72657373000000000000000000000000000000000000000000000000000000006020830152604082019050919050565b600061200b60198361283a565b91507f4552433732313a20617070726f766520746f2063616c6c6572000000000000006000830152602082019050919050565b600061204b602c8361283a565b91507f4552433732313a206f70657261746f7220717565727920666f72206e6f6e657860008301527f697374656e7420746f6b656e00000000000000000000000000000000000000006020830152604082019050919050565b60006120b160388361283a565b91507f4552433732313a20617070726f76652063616c6c6572206973206e6f74206f7760008301527f6e6572206e6f7220617070726f76656420666f7220616c6c00000000000000006020830152604082019050919050565b6000612117602a8361283a565b91507f4552433732313a2062616c616e636520717565727920666f7220746865207a6560008301527f726f2061646472657373000000000000000000000000000000000000000000006020830152604082019050919050565b600061217d60298361283a565b91507f4552433732313a206f776e657220717565727920666f72206e6f6e657869737460008301527f656e7420746f6b656e00000000000000000000000000000000000000000000006020830152604082019050919050565b60006121e360208361283a565b91507f4552433732313a206d696e7420746f20746865207a65726f20616464726573736000830152602082019050919050565b6000612223602c8361283a565b91507f4552433732313a20617070726f76656420717565727920666f72206e6f6e657860008301527f697374656e7420746f6b656e00000000000000000000000000000000000000006020830152604082019050919050565b600061228960208361283a565b91507f4f776e61626c653a2063616c6c6572206973206e6f7420746865206f776e65726000830152602082019050919050565b60006122c960298361283a565b91507f4552433732313a207472616e73666572206f6620746f6b656e2074686174206960008301527f73206e6f74206f776e00000000000000000000000000000000000000000000006020830152604082019050919050565b600061232f602f8361283a565b91507f4552433732314d657461646174613a2055524920717565727920666f72206e6f60008301527f6e6578697374656e7420746f6b656e00000000000000000000000000000000006020830152604082019050919050565b600061239560218361283a565b91507f4552433732313a20617070726f76616c20746f2063757272656e74206f776e6560008301527f72000000000000000000000000000000000000000000000000000000000000006020830152604082019050919050565b60006123fb60318361283a565b91507f4552433732313a207472616e736665722063616c6c6572206973206e6f74206f60008301527f776e6572206e6f7220617070726f7665640000000000000000000000000000006020830152604082019050919050565b600061246160148361283a565b91507f4552433732313a206361702065786365656465640000000000000000000000006000830152602082019050919050565b61249d8161293f565b82525050565b60006020820190506124b86000830184611dfc565b92915050565b60006080820190506124d36000830187611dfc565b6124e06020830186611dfc565b6124ed6040830185612494565b81810360608301526124ff8184611e1a565b905095945050505050565b600060208201905061251f6000830184611e0b565b92915050565b6000602082019050818103600083015261253f8184611e53565b905092915050565b6000602082019050818103600083015261256081611e8c565b9050919050565b6000602082019050818103600083015261258081611ef2565b9050919050565b600060208201905081810360008301526125a081611f58565b9050919050565b600060208201905081810360008301526125c081611f98565b9050919050565b600060208201905081810360008301526125e081611ffe565b9050919050565b600060208201905081810360008301526126008161203e565b9050919050565b60006020820190508181036000830152612620816120a4565b9050919050565b600060208201905081810360008301526126408161210a565b9050919050565b6000602082019050818103600083015261266081612170565b9050919050565b60006020820190508181036000830152612680816121d6565b9050919050565b600060208201905081810360008301526126a081612216565b9050919050565b600060208201905081810360008301526126c08161227c565b9050919050565b600060208201905081810360008301526126e0816122bc565b9050919050565b6000602082019050818103600083015261270081612322565b9050919050565b6000602082019050818103600083015261272081612388565b9050919050565b60006020820190508181036000830152612740816123ee565b9050919050565b6000602082019050818103600083015261276081612454565b9050919050565b600060208201905061277c6000830184612494565b92915050565b6000604051905081810181811067ffffffffffffffff821117156127a9576127a8612a1b565b5b8060405250919050565b600067ffffffffffffffff8211156127ce576127cd612a1b565b5b601f19601f8301169050602081019050919050565b600067ffffffffffffffff8211156127fe576127fd612a1b565b5b601f19601f8301169050602081019050919050565b600081519050919050565b600081519050919050565b600082825260208201905092915050565b600082825260208201905092915050565b60006128568261293f565b91506128618361293f565b9250827fffffffffffffffffffffffffffffffffffffffffffffffffffffffffffffffff03821115612896576128956129bd565b5b828201905092915050565b60006128ac8261293f565b91506128b78361293f565b9250828210156128ca576128c96129bd565b5b828203905092915050565b60006128e08261291f565b9050919050565b60008115159050919050565b60007fffffffff0000000000000000000000000000000000000000000000000000000082169050919050565b600073ffffffffffffffffffffffffffffffffffffffff82169050919050565b6000819050919050565b82818337600083830152505050565b60005b8381101561297657808201518184015260208101905061295b565b83811115612985576000848401525b50505050565b600060028204905060018216806129a357607f821691505b602082108114156129b7576129b66129ec565b5b50919050565b7f4e487b7100000000000000000000000000000000000000000000000000000000600052601160045260246000fd5b7f4e487b7100000000000000000000000000000000000000000000000000000000600052602260045260246000fd5b7f4e487b7100000000000000000000000000000000000000000000000000000000600052604160045260246000fd5b6000601f19601f8301169050919050565b612a64816128d5565b8114612a6f57600080fd5b50565b612a7b816128e7565b8114612a8657600080fd5b50565b612a92816128f3565b8114612a9d57600080fd5b50565b612aa98161293f565b8114612ab457600080fd5b5056fea264697066735822122091898c477bffd67a21dcb9c25ae45de885fa4880229c028031dcb70c34f0561b64736f6c63430008000033",
  "linkReferences": {},
  "deployedLinkReferences": {}
}